:020000040800F2
:1000000030070020890100089101000893010008D1
:100010009501000897010008990100080000000000
:100020000000000000000000000000009B0100082C
:100030009D010008000000009F0100081D1F00082E
:10004000A3010008A3010008A3010008A301000800
:10005000A3010008A3010008A3010008A3010008F0
:10006000A3010008A3010008A3010008A3010008E0
:10007000A3010008A3010008A3010008A3010008D0
:10008000A3010008A3010008A3010008A3010008C0
:10009000A3010008A3010008A3010008A3010008B0
:1000A000A3010008A3010008A3010008A3010008A0
:1000B000951F0008A3010008A3010008A301000880
:1000C000A3010008A3010008A3010008B51000085F
:1000D000A301000855210008A3010008A30100089E
:1000E000A3010008A3010008A301000800F002F822
:1000F00000F03AF80AA090E8000C82448344AAF188
:100100000107DA4501D100F02FF8AFF2090EBAE885
:100110000F0013F0010F18BFFB1A43F0010318473B
:100120005C2500007C250000103A24BF78C878C107
:10013000FAD8520724BF30C830C144BF04680C60ED
:10014000704700000023002400250026103A28BF35
:1001500078C1FBD8520728BF30C148BF0B60704739
:100160001FB51FBD10B510BD00F031F81146FFF7E7
:10017000F7FF02F07DFA00F04FF803B4FFF7F2FF4B
:1001800003BC00F057F800000948804709480047C1
:10019000FEE7FEE7FEE7FEE7FEE7FEE7FEE7FEE737
:1001A000FEE7FEE704480549054A064B7047000094
:1001B0002D1F0008ED00000830010020300700204E
:1001C00030030020300300207047704770477546A9
:1001D00000F02CF8AE4605006946534620F00700B3
:1001E000854618B020B5FFF7DDFFBDE820404FF091
:1001F00000064FF000074FF000084FF0000BAC4630
:10020000ACE8C009ACE8C009ACE8C009ACE8C0097A
:1002100021F007018D46704710B50446AFF300800A
:100220002046BDE81040FFF7A8BF00000048704717
:100230000800002001491820ABBEFEE7260002009E
:100240007047000080B500F01FF900F0B9F800F029
:100250005DFD80BD80B582B000F054FC40F22811F5
:10026000C2F200010020019008704870887040F2CE
:100270007000C2F20000142100F032F8019840F240
:100280002011C2F20001087040F29802C2F200028E
:100290001060087040F28601C2F20001087040F25E
:1002A0008401C2F20001087040F2AC01C2F2000108
:1002B000087040F2AD01C2F20001087040F28701FF
:1002C000C2F20001087040F28801C2F20001087019
:1002D00040F28501C2F20001087002B080BD00004A
:1002E00083B002900191002000900090FFE70098F9
:1002F000019988420BD8FFE7029900200870029804
:1003000001300290FFE7009801300090EFE703B062
:100310007047000080B540F22010C2F20000007863
:10032000012808D0FFE740F22010C2F20000007858
:10033000022814D1FFE740F28600C2F200000078E4
:1003400004280BD1FFE742F29533C0F600030020EA
:100350004FF47A71012201F09FFDFFE7FFE780BDB6
:1003600082B0019000208DF8030040F22010C2F20C
:100370000000007801280FD1FFE7019800780128DC
:1003800009DBFFE7019800780C2804DCFFE7012077
:100390008DF80300FFE70EE001980078002809D4EB
:1003A000FFE701980078172804DCFFE701208DF8AB
:1003B0000300FFE7FFE79DF8030002B0704700006D
:1003C00080B582B040F26800C2F2000000780028D8
:1003D00048D1FFE740F28400C2F200000078032811
:1003E0003FD1FFE740F22810C2F20000007840F24F
:1003F000AE01C2F200010978884231D1FFE740F234
:100400002810C2F20000407840F2AE01C2F20001B2
:100410004978884224D1FFE740F22810C2F2000058
:10042000807840F2AE01C2F200018978884217D18B
:10043000FFE740F28500C2F2000001220192027043
:1004400040F68923C0F600034FF47A71104601F09C
:1004500023FD019840F26801C2F200010870FFE735
:10046000FFE70FE040F28500C2F2000000780128AB
:1004700007D1FFE740F26801C2F2000100200870D6
:10048000FFE7FFE702B080BD80B582B000208DF8A5
:10049000070040F29800C2F200000068002800F057
:1004A0009F80FFE740F27000C2F2000000785B28F6
:1004B00040F08E80FFE740F27000C2F200008079C9
:1004C0005D2808D0FFE740F27000C2F20000407AD9
:1004D0005D287DD1FFE700208DF80700FFE79DF83C
:1004E000070040F29801C2F200010968884256D222
:1004F000FFE79DF8071040F27000C2F20000405C78
:1005000030280ADBFFE79DF8071040F27000C2F2C6
:100510000000405C3A2828DBFFE79DF8071040F216
:100520007000C2F20000405C41280ADBFFE79DF842
:10053000071040F27000C2F20000405C5B2814DB40
:10054000FFE79DF8071040F27000C2F20000405C27
:100550005B280AD0FFE79DF8071040F27000C2F256
:100560000000405C5D2807D1FFE740F26901C2F25C
:100570000001012008700BE040F29801C2F2000176
:100580000020086040F26901C2F20001087006E034
:10059000FFE79DF8070001308DF807009FE740F264
:1005A0006900C2F200000078012810D1FFE700F0D6
:1005B00051F8FFF7AFFE40F26901C2F200010020DE
:1005C000087040F29801C2F200010860FFE706E0FF
:1005D00040F29801C2F2000100200860FFE7FFE747
:1005E00002B080BD81B08DF803009DF803000128A2
:1005F00009D1FFE741F21801C4F20201086840F096
:100600000100086008E041F21801C4F20201086824
:1006100020F001000860FFE701B0704781B08DF85D
:1006200003009DF80300012809D1FFE741F21801FA
:10063000C4F20201086840F48050086008E041F20A
:100640001801C4F20201086820F480500860FFE736
:1006500001B0704780B588B000208DF817000320E6
:100660008DF81700FFE79DF81700082812DCFFE758
:100670009DF8172040F27000C2F20000805C303814
:100680000DF10D018854FFE79DF8170001308DF83A
:100690001700E8E70DF10D000290C11C021D06A82D
:1006A000019000F0E3FA0198029A0130511D0632E0
:1006B00000F0DCFA0198029A0230D11D083200F0F5
:1006C000D5FA40F27000C2F20000407853280FD1F2
:1006D000FFE740F27000C2F200008078542807D192
:1006E000FFE740F28601C2F200010420087078E0C2
:1006F00040F27000C2F20000407848281FD1FFE7A6
:1007000040F27000C2F200008078472817D1FFE75E
:1007100006A8FFF725FE012810D1FFE740F284016B
:10072000C2F200010320087040F2AE01C2F20001E3
:10073000BDF81C00888006980860FFE750E040F292
:100740007000C2F20000407841281FD1FFE740F25C
:100750007000C2F2000080784D2817D1FFE706A88C
:10076000FFF7FEFD012810D1FFE740F22011C2F291
:1007700000010120087040F22811C2F20001BDF80A
:100780001C00888006980860FFE728E040F27000AF
:10079000C2F20000407850281FD1FFE740F27000FD
:1007A000C2F2000080784D2817D1FFE706A8FFF7B6
:1007B000D7FD012810D1FFE740F22011C2F200015D
:1007C0000220087040F22811C2F20001BDF81C009E
:1007D000888006980860FFE700E0FFE7FFE7FFE793
:1007E000FFE708B080BD000082B0019001984FF48F
:1007F0007A7148430090FFE740F26C00C2F20000BB
:1008000000680099884201D8FFE7F5E740F26C01E3
:10081000C2F200010020086002B0704781B08DF87C
:1008200003009DF80300012809D1FFE741F21801F8
:10083000C4F20201086840F00400086008E041F2D8
:100840001801C4F20201086820F004000860FFE704
:1008500001B0704781B08DF803009DF803000128B6
:1008600009D1FFE741F21801C4F20201086840F023
:100870001000086008E041F21801C4F202010868A3
:1008800020F010000860FFE701B0704781B041F22E
:100890000401C4F20201086820F00300086041F27C
:1008A0001401C4F20201086820F48050086041F28B
:1008B0000001C4F20201086820F080700860086836
:1008C00040F480300860FFE741F20000C4F202000B
:1008D00000688003002801D4FFE7F5E741F22C010E
:1008E000C4F20201086820F480300860086820F033
:1008F0000F00086041F20401C4F20201009108688F
:1009000040F480300860086820F4701008600868BF
:1009100040F4E0100860086820F48060086008680F
:1009200040F480500860086820F4005008600868AF
:1009300020F0F0000860086840F00100086041F213
:100940000002C4F20202106820F00100106010687A
:1009500040F080701060086820F0706008600868DF
:1009600020F001000860086840F002000860FFE71E
:1009700041F20400C4F2020000680007002801D41C
:10098000FFE7F5E701B0704780B582B08DF807004A
:100990008DF806109DF80600ADF804009DF80710CC
:1009A000BDF8040000EB0120ADF8040001A800F040
:1009B000F7FB02B080BD000080B582B08DF8070063
:1009C0008DF806108DF80520032000F017F806209A
:1009D00000F014F89DF805200120022100F022F813
:1009E0009DF806200420052100F01CF89DF8072042
:1009F0000720082100F016F802B080BD80B582B053
:100A00008DF807000F20ADF804009DF80710BDF821
:100A1000040040EA0120ADF8040001A800F0C0FB8A
:100A200002B080BD80B582B08DF807008DF8061049
:100A30008DF8052000208DF804008DF803009DF846
:100A400005004CF6CD41CCF6CC41A0FB0132D208DA
:100A500002EB8202A0EB42008DF804009DF8050035
:100A6000A0FB0110C0088DF803009DF807009DF859
:100A70000410FFF789FF9DF806009DF80310FFF7AB
:100A800083FF02B080BD000080B502200D2101F07F
:100A9000DDFA80BD80B586B0022003900D2104915F
:100AA0000022029201F0DAFCC8200190FFF79CFEC0
:100AB000039804990122059201F0D0FC0198FFF7F8
:100AC00093FE029A0398049901F0C8FC0198FFF77D
:100AD0008BFE03980499059A01F0C0FC0198FFF77A
:100AE00083FE029A0398049901F0B8FC4FF47A70DF
:100AF000FFF77AFE03980499059A01F0AFFC06B05F
:100B000080BD000080B584B001200390FFF7A2FEF5
:100B10000398FFF783FE039B0020009002220192BE
:100B2000114600F08BFD0098019A039B032100F011
:100B300085FD0198039A0D21029100F031FF019883
:100B40000299039A01F08AFC04B080BD80B582B09E
:100B50008DF8070040F28B00C2F200000078A8B9BF
:100B6000FFE79DF80700FFF749FF40F21810C2F2B7
:100B70000000006840F28C01C2F20001086040F2FF
:100B80008B01C2F20001012008706CE040F28B0082
:100B9000C2F200000078012840D1FFE740F21810AF
:100BA000C2F20000006840F28C01C2F20001096844
:100BB000401A4AF22011C0F2070188422DD3FFE704
:100BC00040F2AC00C2F20000007801280AD1FFE731
:100BD00040F22812C2F20002107851789278FFF7A2
:100BE000EBFE09E040F2AE02C2F20002107851784A
:100BF0009278FFF7E1FEFFE740F21810C2F2000022
:100C0000006840F28C01C2F20001086040F28B01E2
:100C1000C2F2000102200870FFE723E040F2181042
:100C2000C2F20000006840F28C01C2F200010968C3
:100C3000401A4AF22011C0F20701884211D3FFE79F
:100C400040F21810C2F20000006840F28C01C2F2BB
:100C50000001086040F28B01C2F200010020087020
:100C6000FFE7FFE7FFE702B080BD000083B002901E
:100C7000019100920198007800EB800100980078C3
:100C800000EB41000299087003B0704782B0FFF793
:100C9000FDFD01F07DF801F061FA00F017FA01F0B6
:100CA0008FF900F0F5F8FFF7D5FAFFE70020019083
:100CB000022100F063F90146019840F28702C2F276
:100CC00000021170032100F059F940F28801C2F2CC
:100CD0000001087001F0ECFA04280CD1FFE740F2A3
:100CE0007000C2F2000001F087FA40F29801C2F2EF
:100CF0000001086002E0FFF7A5FAFFE701F066F8DF
:100D000001F006FB0220FFF76FFDCFE780B584B04E
:100D100040F2AC00C2F20000007818B9FFE700F022
:100D20006BFBFFE740F2AC00C2F200000078012844
:100D30005CD1FFE740F29C00C2F20000007850B99D
:100D4000FFE7002001F0DAF840F29C01C2F2000156
:100D50000120087049E040F29C00C2F200000078D7
:100D6000012823D1FFE740F20000C2F20000039007
:100D70000078FFF7EBFE039940F22810C2F2000062
:100D800000F058FA012810D1FFE740F2AD00C2F29E
:100D900000000078032807D1FFE740F29C01C2F26F
:100DA000000102200870FFE7FFE71DE042F29533E3
:100DB000C0F60003002002904FF47A7101220192E4
:100DC00001F06AF80199029840F2AC02C2F2000206
:100DD000107040F20002C2F20002117040F29C0159
:100DE000C2F200010870FFE7FFE74FE040F2AC00FD
:100DF000C2F20000007802283DD1FFE740F29C00DB
:100E0000C2F20000007818BBFFE740F20000C2F217
:100E1000000000900078FFF799FE009940F2AE00C4
:100E2000C2F2000000F006FA012810D1FFE740F2FC
:100E3000AD00C2F200000078032807D1FFE740F2BE
:100E40009C01C2F2000101200870FFE7FFE711E0FA
:100E500040F2AC01C2F200010020087040F2000232
:100E6000C2F200020121117040F29C01C2F20001A5
:100E70000870FFE709E040F22812C2F20002107881
:100E800051789278FFF798FDFFE7FFE704B080BD47
:100E900080B582B00020ADF8060040F60120ADF824
:100EA00006000DF10600009000F07AF9009840F677
:100EB0000731ADF8061000F073F9009840F60141D3
:100EC000ADF8061000F06CF9009840F6FF11ADF88F
:100ED000061000F065F902B080BD000081B08DF809
:100EE00003009DF9031001EBD16020F01F028A1A64
:100EF000012101FA02F342114EF28021CEF20001EB
:100F000051F82200184341F8220001B07047000058
:100F100081B08DF803009DF9031001EBD16020F042
:100F20001F028A1A012101FA02F342114EF2001146
:100F3000CEF2000151F82200184341F8220001B01E
:100F40007047000081B08DF803008DF802109DF805
:100F500002009DF9032002EB927121F00301521A65
:100F6000D200043200FA02F34EF20042CEF2000246
:100F700088581843885001B07047000082B08DF83F
:100F800007008DF806109DF8070060B9FFE740F6EE
:100F90000800C4F2010000689DF80620012191407C
:100FA0000840009065E09DF8070001280CD1FFE79C
:100FB00040F60840C4F2010000689DF806200121B7
:100FC00091400840009053E09DF8070002280CD1A2
:100FD000FFE741F20800C4F2010000689DF8062016
:100FE000012191400840009041E09DF8070003284E
:100FF0000CD1FFE741F20840C4F2010000689DF8FF
:10100000062001219140084000902FE09DF8070044
:1010100004280CD1FFE741F60800C4F20100006883
:101020009DF8062001219140084000901DE09DF8A8
:10103000070005280CD1FFE741F60840C4F2010083
:1010400000689DF8062001219140084000900BE0C7
:1010500042F20800C4F2010000689DF80620012158
:10106000914008400090FFE7FFE7FFE7FFE7FFE759
:10107000FFE7009802B0704740F61001C4F201018A
:10108000086840F0100008607047000043F200015B
:10109000C4F20101086840F0400008607047000099
:1010A00040F61401C4F20101086840F01000086025
:1010B0007047000043F20C00C4F20100006840F2E7
:1010C0009E01C2F2000108707047000080B584B034
:1010D00001200090FFF7A2FB0098FFF783FA009829
:1010E000FFF79CFA042100220292104600F058FCFF
:1010F000029805210222019200F052FC009B029806
:1011000006211A4600F09AFA019A0298072100F087
:1011100047FC029943F20002C4F201021160106818
:1011200020F004001060106840F0040010601068A7
:1011300020F038001060106840F030001060106837
:1011400020F480601060106840F4807010601068B7
:1011500020F400701060106840F400701060106897
:1011600020F400601060106840F40060106043F2EA
:101170000402C4F20102106840F040001060232015
:101180000390FFF7DFFE0398FFF7A8FE0398FFF731
:10119000BFFEFFF77BFFFFF76FFF04B080BD0000CD
:1011A00080B582B00190FFF77BFFFFE743F20800B4
:1011B000C4F2010000688007002801D4FFE7F5E7CA
:1011C0000198008843F20C01C4F201010860FFE7B6
:1011D00043F20800C4F2010000688007002801D42F
:1011E000FFE7F5E7FFE743F20800C4F201000068FB
:1011F0000006002801D5FFE7F5E743F20C00C4F232
:101200000100006843F20800C4F201000068FFF723
:1012100033FF02B080BD000080B582B002200D21F6
:101220000122019201F01AF9019800F067FE02B064
:1012300080BD000080B584B00390029100208DF83D
:10124000070040F28700C2F20000007830BBFFE7E1
:1012500040F28800C2F200000078F8B9FFE740F2DF
:101260001810C2F20000006840F2A001C2F20001B2
:101270000968401A4CF2C061C0F22D0188420CD3BB
:10128000FFE7FFF707FC01208DF8070040F2AD01F2
:10129000C2F2000103200870FFE7A9E040F2181035
:1012A000C2F20000006840F2A001C2F20001086032
:1012B00040F28700C2F20000007840F20101C2F261
:1012C00000010978884221D0FFE740F28700C2F28E
:1012D0000000007878B9FFE702980078072804DB5F
:1012E000FFE702990120087004E0029908780330B2
:1012F0000870FFE7FFE740F28700C2F200000078C5
:1013000040F20101C2F200010870FFE740F28800DC
:10131000C2F20000007840F20201C2F20001097836
:10132000884264D0FFE740F28800C2F200000078F3
:10133000002851D1FFE70298007801280FD1FFE77C
:10134000039880783B2804DBFFE70399002088702E
:1013500004E00399887801308870FFE73BE0029849
:10136000007804280FD1FFE7039840783B2804DB7E
:10137000FFE703990020487004E0039948780130A2
:101380004870FFE726E040F22010C2F2000000782B
:1013900001280FD1FFE7039800780C2804DBFFE752
:1013A00003990120087004E003990878013008705F
:1013B000FFE70EE003980078172804DBFFE70399A6
:1013C0000020087004E00399087801300870FFE7F6
:1013D000FFE7FFE7FFE7FFE740F28800C2F2000007
:1013E000007840F20201C2F200010870FFE7FFE757
:1013F0009DF8070004B080BD80B540F28600C2F2BF
:1014000000000078042840F08F80FFE740F287005A
:10141000C2F20000007880BBFFE740F21810C2F271
:101420000000006840F2A401C2F200010968401AFD
:101430004CF2C061C0F22D01884211D3FFE7FFF7E3
:1014400029FB40F2AC00C2F20000007838B9FFE797
:1014500040F2AC01C2F2000101200870FFE70BE08E
:1014600040F28500C2F200000078012803D1FFE7B6
:10147000FFF7D2FEFFE7FFE70AE040F21810C2F2E2
:101480000000006840F2A401C2F200010860FFE71A
:1014900040F28800C2F200000078C8BBFFE740F2CB
:1014A0001810C2F20000006840F2A801C2F2000168
:1014B0000968401A4CF2C061C0F22D0188421AD36B
:1014C000FFE7FFF7E7FA40F2AC00C2F20000007855
:1014D00080B9FFE740F2AC01C2F2000102200870BF
:1014E00040F2AE02C2F20002107851789278FFF713
:1014F00063FAFFE70BE040F28500C2F200000078DB
:10150000012803D1FFE7FFF787FEFFE7FFE70AE0C7
:1015100040F21810C2F20000006840F2A801C2F2C6
:1015200000010860FFE7FFE780BD000082B0019086
:101530008DF803108DF802208DF801309DF803100E
:10154000032000FA01F3019A1168994311609DF894
:10155000021000FA01F201990868904308609DF8B2
:10156000010001280AD1FFE79DF80210012000FACE
:1015700001F2019908681043086010E09DF801002D
:1015800002280AD1FFE79DF80210022000FA01F2BA
:10159000019908681043086000E0FFE7FFE702B028
:1015A0007047000082B001908DF803108DF8022082
:1015B0008DF801309DF80310032000FA01F3019A21
:1015C0001168194311609DF8021000FA01F20199A7
:1015D0000868904308609DF8010001280AD1FFE7E0
:1015E0009DF80210012000FA01F2019908681043E9
:1015F000086020E09DF8010002280AD1FFE79DF86D
:101600000210022000FA01F20199086810430860F4
:1016100010E09DF8010003280AD1FFE79DF80210B1
:10162000032000FA01F2019908681043086000E005
:10163000FFE7FFE7FFE702B07047000080B582B028
:101640008DF807008DF806108DF805208DF8043010
:101650009DF80600072800F3CF80FFE79DF80600FD
:1016600080008DF803009DF8030002308DF8020021
:101670009DF80700B8B9FFE79DF803109DF8022018
:101680009DF8053040F60000C4F20100FFF74EFF60
:101690009DF806109DF8042040F60C00C4F20100ED
:1016A00000F0A2FAA7E09DF80700012817D1FFE794
:1016B0009DF803109DF802209DF8053040F600408B
:1016C000C4F20100FFF732FF9DF806109DF80420D8
:1016D00040F60C40C4F2010000F086FA8AE09DF862
:1016E0000700022817D1FFE79DF803109DF802209C
:1016F0009DF8053041F20000C4F20100FFF716FF2B
:101700009DF806109DF8042041F20C00C4F201007F
:1017100000F06AFA6DE09DF80700032817D1FFE793
:101720009DF803109DF802209DF8053041F200401D
:10173000C4F20100FFF7FAFE9DF806109DF80420A0
:1017400041F20C40C4F2010000F04EFA50E09DF866
:101750000700042817D1FFE79DF803109DF8022029
:101760009DF8053041F60000C4F20100FFF7DEFEEF
:101770009DF806109DF8042041F60C00C4F201000B
:1017800000F032FA33E09DF80700052817D1FFE793
:101790009DF803109DF802209DF8053041F60040A9
:1017A000C4F20100FFF7C2FE9DF806109DF8042068
:1017B00041F60C40C4F2010000F016FA16E09DF864
:1017C00003109DF802209DF8053042F20000C4F29B
:1017D0000100FFF7ABFE9DF806109DF8042042F2D1
:1017E0000C00C4F2010000F0FFF9FFE7FFE7FFE79C
:1017F000FFE7FFE7FFE7D0E09DF806106FF01F005E
:1018000000EB81008DF801009DF8010002308DF899
:1018100000009DF80700B8B9FFE79DF801109DF89A
:1018200000209DF8053040F60400C4F20100FFF7E7
:101830007DFE9DF806109DF8042040F60C00C4F2D1
:10184000010000F0D1F9A7E09DF80700012817D1A9
:10185000FFE79DF801109DF800209DF8053040F647
:101860000440C4F20100FFF761FE9DF806109DF8E8
:10187000042040F60C40C4F2010000F0B5F98AE003
:101880009DF80700022817D1FFE79DF801109DF889
:1018900000209DF8053041F20400C4F20100FFF77A
:1018A00045FE9DF806109DF8042041F20C00C4F29C
:1018B000010000F099F96DE09DF80700032817D1A9
:1018C000FFE79DF801109DF800209DF8053041F2DA
:1018D0000440C4F20100FFF729FE9DF806109DF8B0
:1018E000042041F20C40C4F2010000F07DF950E008
:1018F0009DF80700042817D1FFE79DF801109DF817
:1019000000209DF8053041F60400C4F20100FFF705
:101910000DFE9DF806109DF8042041F60C00C4F25F
:10192000010000F061F933E09DF80700052817D1A8
:10193000FFE79DF801109DF800209DF8053041F665
:101940000440C4F20100FFF7F1FD9DF806109DF878
:10195000042041F60C40C4F2010000F045F916E005
:101960009DF801109DF800209DF8053042F204001A
:10197000C4F20100FFF7DAFD9DF806109DF804207F
:1019800042F20C00C4F2010000F02EF9FFE7FFE77D
:10199000FFE7FFE7FFE7FFE7FFE702B080BD0000DA
:1019A00080B582B08DF807008DF806108DF80520FF
:1019B0009DF80600072800F38980FFE79DF80600E0
:1019C00080008DF804009DF8040002308DF80300BB
:1019D0009DF8070068B9FFE79DF804109DF8032003
:1019E0009DF8053040F60000C4F20100FFF7DAFD73
:1019F0006BE09DF8070001280DD1FFE79DF804106A
:101A00009DF803209DF8053040F60040C4F2010027
:101A1000FFF7C8FD58E09DF8070002280DD1FFE749
:101A20009DF804109DF803209DF8053041F2000058
:101A3000C4F20100FFF7B6FD45E09DF8070003285A
:101A40000DD1FFE79DF804109DF803209DF80530A7
:101A500041F20040C4F20100FFF7A4FD32E09DF81E
:101A6000070004280DD1FFE79DF804109DF803201E
:101A70009DF8053041F60000C4F20100FFF792FD29
:101A80001FE09DF8070005280DD1FFE79DF8041021
:101A90009DF803209DF8053041F60040C4F2010096
:101AA000FFF780FD0CE09DF804109DF803209DF8E1
:101AB000053042F20000C4F20100FFF773FDFFE7BA
:101AC000FFE7FFE7FFE7FFE7FFE78AE09DF8061083
:101AD0006FF01F0000EB81008DF802009DF80200FE
:101AE00002308DF801009DF8070068B9FFE79DF806
:101AF00002109DF801209DF8053040F60400C4F264
:101B00000100FFF74FFD6BE09DF8070001280DD1A4
:101B1000FFE79DF802109DF801209DF8053040F682
:101B20000440C4F20100FFF73DFD58E09DF80700B6
:101B300002280DD1FFE79DF802109DF801209DF8C5
:101B4000053041F20400C4F20100FFF72BFD45E02F
:101B50009DF8070003280DD1FFE79DF802109DF8BE
:101B600001209DF8053041F20440C4F20100FFF766
:101B700019FD32E09DF8070004280DD1FFE79DF81C
:101B800002109DF801209DF8053041F60400C4F2D2
:101B90000100FFF707FD1FE09DF8070005280DD1A4
:101BA000FFE79DF802109DF801209DF8053041F6F1
:101BB0000440C4F20100FFF7F5FC0CE09DF80210B0
:101BC0009DF801209DF8053042F20400C4F20100A6
:101BD000FFF7E8FCFFE7FFE7FFE7FFE7FFE7FFE7C7
:101BE000FFE702B080BD000082B001908DF80310C5
:101BF0008DF802209DF8020001280AD1FFE79DF828
:101C00000310012000FA01F20199086810430860EE
:101C100009E09DF80310012000FA01F2019908681B
:101C200090430860FFE702B07047000080B500F005
:101C300001F880BD84B000200390029041F20001C1
:101C4000C4F20201086840F480300860FFE741F206
:101C50000000C4F20200006800F400300290039813
:101C600001300390FFE702990020019039B9FFE7A6
:101C70000398B0F5A06018BF01200190FFE701981C
:101C8000C0070028E3D1FFE741F20000C4F20200E0
:101C900000688003002803D5FFE70120029002E0DE
:101CA00000200290FFE70298012851D1FFE742F29D
:101CB0000001C4F20201086840F0100008600868E2
:101CC00020F007000860086840F00200086041F258
:101CD0000401C4F202010091086808600868086005
:101CE000086840F480600860086820F47C10086090
:101CF000086840F4E810086041F20001C4F20201F3
:101D0000086840F080700860FFE741F20000C4F20C
:101D1000020000688001002801D4FFE7F5E741F2E6
:101D20000401C4F20201086820F00300086008689A
:101D300040F002000860FFE741F20400C4F2020034
:101D4000006800F00C00082801D0FFE7F4E700E08D
:101D5000FFE704B07047000080B584B00120039015
:101D6000FEF75CFD00200190092102220292FFF79C
:101D700017FE0198029A039B0A21FFF75FFC0421DA
:101D8000C4F20101086820F00400086004B080BDBE
:101D900040F21C11C2F20001002008604EF2140251
:101DA000CEF2000241F63F11C0F2010111604EF285
:101DB0001801CEF2000108604EF21001CEF20001CF
:101DC000086840F0070008607047000080B582B0E6
:101DD00000200190FFE7019802285ADCFFE70198F4
:101DE00000EB800140F2DC00C2F2000000EB810059
:101DF0008068002848D0FFE740F21C10C2F20000C3
:101E00000068019901EB810240F2DC01C2F200019D
:101E100001EB82029168D268801A884233D3FFE7CF
:101E2000019800EB800140F2DC00C2F2000000EB00
:101E300081000079012819D1FFE7019800EB8001AA
:101E400040F2DC00C2F20000009000EB810000696B
:101E50008047009940F21C10C2F200000068019A0D
:101E600002EB820201EB8201C8600BE0019800EBFB
:101E7000800140F2DC00C2F2000000EB810000694A
:101E80008047FFE7FFE7FFE7FFE701980130019098
:101E9000A1E702B080BD000084B0039002918DF8EC
:101EA00007200093039800EB800240F2DC01C2F2AD
:101EB000000141F822009DF80700039A02EB82021C
:101EC00001EB820210710298039A02EB820201EB8D
:101ED000820290600098039A02EB820201EB820278
:101EE000106140F21C10C2F200000068039A02EB7D
:101EF000820201EB8201C86004B0704781B000909B
:101F0000009800EB800140F2DC00C2F2000000EB20
:101F100081010020886001B07047000040F21C1170
:101F2000C2F20001086801300860704780B541F2D4
:101F30000002C4F20202106840F00100106041F299
:101F40000401C4F2020108680023CFF6FF03184021
:101F5000086010684FF6FF73CFF6F6631840106004
:101F6000106820F480201060086820F4FE000860EB
:101F700041F20801C4F202014FF41F000860FFF7AC
:101F800055FE4EF60851CEF200014FF00060086099
:101F900080BD00001021C4F20001086820F001009B
:101FA000086040F26C01C2F200010868013008606C
:101FB00040F21811C2F20001086801300860704751
:101FC00080B584B00020039041F21C02C4F20202EA
:101FD000116841F0010111602821C4F2000108607C
:101FE0002C22C4F20002482111602421C4F2000115
:101FF00008600C21C4F20001086840F0010008608C
:102000001021C4F20001086820F0010008601C20C3
:102010000190FEF763FF232001210291FEF792FF5A
:102020000198FEF775FF0298039921F010010391C2
:10203000039941F00101039103994FF0804211602F
:102040001421C4F20001086004B080BD81B08DF895
:1020500003008DF802109DF8030068B9FFE79DF8B2
:102060000210012000FA01F240F60C01C4F2010155
:102070000868504008606BE09DF8030001280DD10E
:10208000FFE79DF80210012000FA01F240F60C4132
:10209000C4F2010108685040086058E09DF8030050
:1020A00002280DD1FFE79DF80210012000FA01F28D
:1020B00041F20C01C4F2010108685040086045E09B
:1020C0009DF8030003280DD1FFE79DF802100120C1
:1020D00000FA01F241F20C41C4F2010108685040DB
:1020E000086032E09DF8030004280DD1FFE79DF859
:1020F0000210012000FA01F241F60C01C4F20101C4
:102100000868504008601FE09DF8030005280DD1C5
:10211000FFE79DF80210012000FA01F241F60C41A0
:10212000C4F201010868504008600CE09DF80210FC
:10213000012000FA01F242F20C01C4F20101086828
:1021400050400860FFE7FFE7FFE7FFE7FFE7FFE733
:1021500001B0704780B500F0B1F880BD80B582B0A5
:10216000FFF7FAFD00F03EF843F60C01C4F201015E
:10217000086840F008000860086840F00400086043
:10218000086820F480500860086840F0200008606B
:1021900043F60802C4F20102106840F4EA501060ED
:1021A000106840F00C001060086840F400500860AF
:1021B000252001900021FEF7C5FE0198FEF78EFE56
:1021C0000198FEF7A5FE40F22111C2F200010120A4
:1021D000087040F29D01C2F200010320087002B0B5
:1021E00080BD000041F21801C4F20201086840F409
:1021F000804008607047000081B0009040F29D0070
:10220000C2F20000007804284BD1FFE740F28900B9
:10221000C2F20000007840F28A01C2F2000109789F
:1022200088422AD0FFE740F28900C2F2000002781B
:1022300040F2B401C2F20001895C009B40F222121C
:10224000C2F2000292F800C003F80C1011780131BC
:1022500011700078132807D3FFE740F28901C2F21A
:1022600000010020087007E040F28901C2F200017D
:10227000087801300870FFE712E040F22211C2F244
:102280000001087840F29002C2F2000210600020C3
:10229000087040F29D01C2F2000103200870FFE7C0
:1022A000FFE740F29000C2F20000006801B0704702
:1022B00040F29D00C2F200000078704743F604002F
:1022C000C4F20100016840F28A00C2F20000037803
:1022D00040F2B402C2F20002D1540078132807D3AE
:1022E000FFE740F28A01C2F200010020087007E017
:1022F00040F28A01C2F20001087801300870FFE75D
:1023000040F29D01C2F200010420087070470000F5
:1023100040F22110C2F200000078022838D1FFE715
:1023200043F60000C4F2010000680006002821D531
:10233000FFE740F29400C2F200000068D0B1FFE76E
:1023400040F22411C2F200010A6840F2C800C2F251
:102350000000805C43F60402C4F2010210600868C9
:102360000130086040F29401C2F2000108680138AF
:1023700008600CE040F22411C2F200010020086065
:1023800040F22111C2F2000101200870FFE7FFE7CF
:102390007047000040F22810C2F2000080783B280D
:1023A00052DBFFE740F22810C2F2000000218170EA
:1023B00040783B283FDBFFE740F22811C2F20001E2
:1023C0000020487040F22010C2F20000007801287E
:1023D00018D1FFE740F22810C2F2000000780C2864
:1023E00007DBFFE740F22811C2F20001012008706C
:1023F00007E040F22811C2F20001087801300870AD
:10240000FFE717E040F22810C2F20000007817281A
:1024100007DBFFE740F22811C2F20001002008703C
:1024200007E040F22811C2F200010878013008707C
:10243000FFE7FFE707E040F22811C2F20001487809
:1024400001304870FFE707E040F22811C2F20001B6
:10245000887801308870FFE77047000081B08DF800
:1024600003008DF802108DF801209DF8010001286D
:102470007ED1FFE79DF8030068B9FFE79DF80210E1
:10248000012000FA01F240F60C01C4F201010868D3
:10249000104308606BE09DF8030001280DD1FFE7B1
:1024A0009DF80210012000FA01F240F60C41C4F23E
:1024B000010108681043086058E09DF803000228F5
:1024C0000DD1FFE79DF80210012000FA01F241F260
:1024D0000C01C4F2010108681043086045E09DF852
:1024E000030003280DD1FFE79DF80210012000FA38
:1024F00001F241F20C41C4F2010108681043086086
:1025000032E09DF8030004280DD1FFE79DF802108A
:10251000012000FA01F241F60C01C4F20101086841
:10252000104308601FE09DF8030005280DD1FFE768
:102530009DF80210012000FA01F241F60C41C4F2AC
:1025400001010868104308600CE09DF802100120AA
:1025500000FA01F242F20C01C4F2010108681043D2
:102560000860FFE7FFE7FFE7FFE7FFE7FFE77DE042
:102570009DF8030068B9FFE79DF80210012000FAFA
:1025800001F240F60C01C4F20101086890430860B2
:102590006BE09DF8030001280DD1FFE79DF80210C4
:1025A000012000FA01F240F60C41C4F20101086872
:1025B0009043086058E09DF8030002280DD1FFE722
:1025C0009DF80210012000FA01F241F20C01C4F260
:1025D000010108689043086045E09DF80300032866
:1025E0000DD1FFE79DF80210012000FA01F241F23F
:1025F0000C41C4F2010108689043086032E09DF884
:10260000030004280DD1FFE79DF80210012000FA15
:1026100001F241F60C01C4F2010108689043086020
:102620001FE09DF8030005280DD1FFE79DF802107B
:10263000012000FA01F241F60C41C4F201010868E0
:10264000904308600CE09DF80210012000FA01F2AE
:1026500042F20C01C4F20101086890430860FFE7F0
:10266000FFE7FFE7FFE7FFE7FFE7FFE701B070479E
:1026700080B582B000200190FEF708FBA02600087C
:10268000000000200800000028010008A82600081B
:102690000800002028070000440100080000000096
:0826A00001010100000000002F
:04000005080000ED02
:00000001FF
