:020000040800F2
:10000000100700206D010008750100087701000845
:10001000790100087B0100087D0100080000000054
:100020000000000000000000000000007F01000848
:10003000810100080000000083010008F11600089B
:100040008701000887010008870100088701000870
:100050008701000887010008870100088701000860
:100060008701000887010008870100088701000850
:100070008701000887010008870100088701000840
:100080008701000887010008870100088701000830
:100090008701000887010008870100088701000820
:1000A0008701000887010008870100088701000810
:1000B0006917000887010008870100088701000808
:1000C000870100088701000887010008BD0B0008B0
:1000D0008701000829190008870100088701000826
:1000E00087010008870100088701000800F002F876
:1000F00000F02CF80AA090E8000C82448344AAF196
:100100000107DA4501D100F021F8AFF2090EBAE893
:100110000F0013F0010F18BFFB1A43F0010318473B
:10012000301D0000401D0000002300240025002693
:10013000103A28BF78C1FBD8520728BF30C148BF4A
:100140000B6070471FB51FBD10B510BD00F031F832
:100150001146FFF7F7FF01F075FE00F04FF803B40A
:10016000FFF7F2FF03BC00F057F800000948804792
:1001700009480047FEE7FEE7FEE7FEE7FEE7FEE789
:10018000FEE7FEE7FEE7FEE704480549054A064BA1
:100190007047000001170008ED0000081001002062
:1001A0001007002010030020100300207047704744
:1001B0007047754600F02CF8AE4605006946534678
:1001C00020F00700854618B020B5FFF7DDFFBDE839
:1001D00020404FF000064FF000074FF000084FF0AE
:1001E000000BAC46ACE8C009ACE8C009ACE8C009FB
:1001F000ACE8C00921F007018D46704710B50446F0
:10020000AFF300802046BDE81040FFF7A8BF000014
:10021000004870470000002001491820ABBEFEE7EF
:10022000260002007047000080B500F0BFF800F023
:100230006DF880BD80B582B000F0C4FB40F20811BB
:10024000C2F200010020019008704870887040F2EE
:100250006800C2F20000142100F018F8019840F282
:100260000011C2F20001087040F28802C2F20002DE
:100270001060087040F27D01C2F20001087040F287
:100280007C01C2F20001087002B080BD83B0029010
:100290000191002000900090FFE7009801998842AA
:1002A0000BD8FFE7029900200870029801300290F5
:1002B000FFE7009801300090EFE703B070470000BF
:1002C00080B540F20010C2F200000078012808D08A
:1002D000FFE740F20010C2F200000078022814D1BB
:1002E000FFE740F27D00C2F20000007804280BD145
:1002F000FFE741F66933C0F6000300204FF47A713E
:10030000012201F0C3F9FFE7FFE780BD80B582B0AD
:1003100040F26000C2F200000078002843D1FFE7FD
:1003200040F27C00C2F20000007803283AD1FFE7D7
:1003300040F20810C2F20000007840F28E01C2F2D2
:100340000001097888422CD1FFE740F20810C2F280
:100350000000407840F28E01C2F2000149788842E4
:100360001FD1FFE740F20810C2F20000807840F28F
:100370008E01C2F200018978884212D1FFE740F66F
:10038000B913C0F600034FF47A71012201921046AE
:1003900001F07CF9019840F26001C2F2000108709E
:1003A000FFE7FFE700E0FFE702B080BD80B582B065
:1003B00000208DF8070040F28800C2F200000068BB
:1003C000002800F09F80FFE740F26800C2F20000C2
:1003D00000785B2840F08E80FFE740F26800C2F2B0
:1003E000000080795D2808D0FFE740F26800C2F283
:1003F0000000407A5D287DD1FFE700208DF80700DE
:10040000FFE79DF8070040F28801C2F20001096889
:10041000884256D2FFE79DF8071040F26800C2F20A
:100420000000405C30280ADBFFE79DF8071040F22F
:100430006800C2F20000405C3A2828DBFFE79DF824
:10044000071040F26800C2F20000405C41280ADB5D
:10045000FFE79DF8071040F26800C2F20000405C20
:100460005B2814DBFFE79DF8071040F26800C2F23A
:100470000000405C5B280AD0FFE79DF8071040F2BF
:100480006800C2F20000405C5D2807D1FFE740F23F
:100490006101C2F20001012008700BE040F2880106
:1004A000C2F200010020086040F26101C2F20001C6
:1004B000087006E0FFE79DF8070001308DF807009F
:1004C0009FE740F26100C2F200000078012810D1DD
:1004D000FFE700F051F8FFF7F3FE40F26101C2F2CE
:1004E00000010020087040F28801C2F2000108609B
:1004F000FFE706E040F28801C2F200010020086038
:10050000FFE7FFE702B080BD81B08DF803009DF8E2
:100510000300012809D1FFE741F21801C4F20201EA
:10052000086840F00100086008E041F21801C4F2D8
:100530000201086820F001000860FFE701B0704781
:1005400081B08DF803009DF80300012809D1FFE771
:1005500041F21801C4F20201086840F480500860BA
:1005600008E041F21801C4F20201086820F480504A
:100570000860FFE701B0704780B58CB000208DF8AF
:100580002F0003208DF82F00FFE79DF82F0008288B
:1005900012DCFFE79DF82F2040F26800C2F2000055
:1005A000805C30380DF11B018854FFE79DF82F0067
:1005B00001308DF82F00E8E740F26800C2F2000039
:1005C000407853280FD1FFE740F26800C2F20000E4
:1005D0008078542807D1FFE740F27D01C2F2000184
:1005E0000420087096E040F26800C2F200004078F3
:1005F000482829D1FFE740F26800C2F20000807865
:10060000472821D1FFE740F27C01C2F2000103201C
:1006100008700DF11B000490C11C021D40F28E00F9
:10062000C2F20000059000F0F1F9049A0598511DFE
:100630000632013000F0EAF9049A0598D11D08321B
:10064000023000F0E3F964E040F26800C2F200001A
:100650004078412829D1FFE740F26800C2F200004B
:1006600080784D2821D1FFE740F20011C2F200014D
:10067000012008700DF11B000290C11C021D40F208
:100680000810C2F20000039000F0C0F9029A03982B
:10069000511D0632013000F0B9F9029A0398D11DBC
:1006A0000832023000F0B2F932E040F26800C2F2E3
:1006B00000004078502829D1FFE740F26800C2F2DC
:1006C000000080784D2821D1FFE740F20011C2F2EE
:1006D0000001022008700DF11B000090C11C021DDA
:1006E00040F20810C2F20000019000F08FF9009A69
:1006F0000198511D0632013000F088F9009A0198E6
:10070000D11D0832023000F081F900E0FFE7FFE779
:10071000FFE7FFE70CB080BD82B0019001984FF475
:100720007A7148430090FFE740F26400C2F2000093
:1007300000680099884201D8FFE7F5E740F26401BC
:10074000C2F200010020086002B0704781B08DF84D
:1007500003009DF80300012809D1FFE741F21801C9
:10076000C4F20201086840F00400086008E041F2A9
:100770001801C4F20201086820F004000860FFE7D5
:1007800001B0704781B08DF803009DF80300012887
:1007900009D1FFE741F21801C4F20201086840F0F4
:1007A0001000086008E041F21801C4F20201086874
:1007B00020F010000860FFE701B0704781B041F2FF
:1007C0000401C4F20201086820F00300086041F24D
:1007D0001401C4F20201086820F48050086041F25C
:1007E0000001C4F20201086820F080700860086807
:1007F00040F480300860FFE741F20000C4F20200DC
:1008000000688003002801D4FFE7F5E741F22C01DE
:10081000C4F20201086820F480300860086820F003
:100820000F00086041F20401C4F20201009108685F
:1008300040F480300860086820F470100860086890
:1008400040F4E0100860086820F4806008600868E0
:1008500040F480500860086820F400500860086880
:1008600020F0F0000860086840F00100086041F2E4
:100870000002C4F20202106820F00100106010684B
:1008800040F080701060086820F0706008600868B0
:1008900020F001000860086840F002000860FFE7EF
:1008A00041F20400C4F2020000680007002801D4ED
:1008B000FFE7F5E701B0704780B582B08DF807001B
:1008C0008DF806109DF80600ADF804009DF807109D
:1008D000BDF8040000EB0120ADF8040001A800F011
:1008E000E3F902B080BD000080B582B08DF807004A
:1008F0008DF806108DF80520032000F017F806206B
:1009000000F014F89DF805200120022100F022F8E3
:100910009DF806200420052100F01CF89DF8072012
:100920000720082100F016F802B080BD80B582B023
:100930008DF807000F20ADF804009DF80710BDF8F2
:10094000040040EA0120ADF8040001A800F0ACF971
:1009500002B080BD80B582B08DF807008DF806101A
:100960008DF8052000208DF804008DF803009DF817
:1009700005004CF6CD41CCF6CC41A0FB0132D208AB
:1009800002EB8202A0EB42008DF804009DF8050006
:10099000A0FB0110C0088DF803009DF807009DF82A
:1009A0000410FFF789FF9DF806009DF80310FFF77C
:1009B00083FF02B080BD000080B502200D2100F051
:1009C0002FFF80BD80B584B001200390FFF7DAFED1
:1009D0000398FFF7BBFE039B0020009002220192C8
:1009E000114600F025FA0098019A039B032100F0BC
:1009F0001FFA0198039A0D21029100F0CBFB019898
:100A00000299039A01F014F904B080BD83B00290FA
:100A1000019100920198007800EB80010098007825
:100A200000EB41000299087003B07047FFF7C6FE63
:100A300000F0A8FD00F07CFF00F0CCF800F0AAFE6A
:100A400000F028F8FFF7F6FBFFE701F01BF8042899
:100A50000CD1FFE740F26800C2F2000000F0B6FFE0
:100A600040F28801C2F20001086002E0FFF7DCFBFF
:100A7000FFE740F20812C2F2000210785178927833
:100A8000FFF732FF00F09CFD01F02CF80220FFF789
:100A900043FEDAE780B582B00020ADF8060040F6EC
:100AA0000120ADF806000DF10600009000F0FCF802
:100AB000009840F60731ADF8061000F0F5F8009800
:100AC00040F60141ADF8061000F0EEF8009840F64F
:100AD000FF11ADF8061000F0E7F802B080BD00008D
:100AE00081B08DF803009DF9031001EBD16020F077
:100AF0001F028A1A012101FA02F342114EF28021EB
:100B0000CEF2000151F82200184341F8220001B052
:100B10007047000081B08DF803009DF9031001EBD0
:100B2000D16020F01F028A1A012101FA02F342115A
:100B30004EF20011CEF2000151F82200184341F8A4
:100B4000220001B07047000081B08DF803008DF8DD
:100B500002109DF802009DF9032002EB927121F032
:100B60000301521AD200043200FA02F34EF200429C
:100B7000CEF2000288581843885001B07047000038
:100B800040F61001C4F20101086840F0100008604E
:100B90007047000043F20001C4F20101086840F010
:100BA000400008607047000040F61401C4F20101E3
:100BB000086840F0100008607047000043F20C0025
:100BC000C4F20100006840F28D01C2F20001087019
:100BD0007047000080B584B001200090FFF7B6FD9B
:100BE0000098FFF791FC0098FFF7AAFC042100226F
:100BF0000292104600F0CEFA0298052102220192DC
:100C000000F0C8FA009B029806211A4600F010F97D
:100C1000019A0298072100F0BDFA029943F20002FE
:100C2000C4F201021160106820F004001060106826
:100C300040F004001060106820F038001060106868
:100C400040F030001060106820F480601060106880
:100C500040F480701060106820F40070106010681C
:100C600040F400701060106820F40060106010689C
:100C700040F40060106043F20402C4F20102106804
:100C800040F04000106023200390FFF75DFF0398C1
:100C9000FFF726FF0398FFF73DFFFFF77BFFFFF706
:100CA0006FFF04B080BD000080B582B00190FFF7F7
:100CB0007BFFFFE743F20800C4F2010000688007F1
:100CC000002801D4FFE7F5E70198008843F20C0102
:100CD000C4F201010860FFE743F20800C4F201001A
:100CE00000688007002801D4FFE7F5E7FFE743F23B
:100CF0000800C4F2010000680006002801D5FFE7E3
:100D0000F5E743F20C00C4F20100006843F208006A
:100D1000C4F201000068FFF733FF02B080BD00009D
:100D200082B001908DF803108DF802208DF801300B
:100D30009DF80310032000FA01F3019A116899430A
:100D400011609DF8021000FA01F2019908689043C1
:100D500008609DF8010001280AD1FFE79DF8021004
:100D6000012000FA01F2019908681043086010E0C0
:100D70009DF8010002280AD1FFE79DF80210022029
:100D800000FA01F2019908681043086000E0FFE7EB
:100D9000FFE702B07047000082B001908DF80310A9
:100DA0008DF802208DF801309DF80310032000FA21
:100DB00001F3019A1168194311609DF8021000FABD
:100DC00001F201990868904308609DF8010001282C
:100DD0000AD1FFE79DF80210012000FA01F2019903
:100DE00008681043086020E09DF8010002280AD13D
:100DF000FFE79DF80210022000FA01F2019908684D
:100E00001043086010E09DF8010003280AD1FFE7B5
:100E10009DF80210032000FA01F2019908681043BE
:100E2000086000E0FFE7FFE7FFE702B0704700005F
:100E300080B582B08DF807008DF806108DF805207A
:100E40008DF804309DF80600072800F3CF80FFE7F7
:100E50009DF8060080008DF803009DF80300023025
:100E60008DF802009DF80700B8B9FFE79DF8031060
:100E70009DF802209DF8053040F60000C4F2010004
:100E8000FFF74EFF9DF806109DF8042040F60C0079
:100E9000C4F2010000F0A2FAA7E09DF807000128C3
:100EA00017D1FFE79DF803109DF802209DF805304B
:100EB00040F60040C4F20100FFF732FF9DF8061033
:100EC0009DF8042040F60C40C4F2010000F086FAC0
:100ED0008AE09DF80700022817D1FFE79DF803106C
:100EE0009DF802209DF8053041F20000C4F2010097
:100EF000FFF716FF9DF806109DF8042041F20C0044
:100F0000C4F2010000F06AFA6DE09DF807000328C2
:100F100017D1FFE79DF803109DF802209DF80530DA
:100F200041F20040C4F20100FFF7FAFE9DF80610FE
:100F30009DF8042041F20C40C4F2010000F04EFA8A
:100F400050E09DF80700042817D1FFE79DF8031033
:100F50009DF802209DF8053041F60000C4F2010022
:100F6000FFF7DEFE9DF806109DF8042041F60C0008
:100F7000C4F2010000F032FA33E09DF807000528C2
:100F800017D1FFE79DF803109DF802209DF805306A
:100F900041F60040C4F20100FFF7C2FE9DF80610C2
:100FA0009DF8042041F60C40C4F2010000F016FA4E
:100FB00016E09DF803109DF802209DF8053042F2DE
:100FC0000000C4F20100FFF7ABFE9DF806109DF88B
:100FD000042042F20C00C4F2010000F0FFF9FFE728
:100FE000FFE7FFE7FFE7FFE7FFE7D0E09DF8061028
:100FF0006FF01F0000EB81008DF801009DF80100EB
:1010000002308DF800009DF80700B8B9FFE79DF8A1
:1010100001109DF800209DF8053040F60400C4F250
:101020000100FFF77DFE9DF806109DF8042040F6B4
:101030000C00C4F2010000F0D1F9A7E09DF8070010
:10104000012817D1FFE79DF801109DF800209DF8B9
:10105000053040F60440C4F20100FFF761FE9DF840
:1010600006109DF8042040F60C40C4F2010000F088
:10107000B5F98AE09DF80700022817D1FFE79DF82F
:1010800001109DF800209DF8053041F20400C4F2E3
:101090000100FFF745FE9DF806109DF8042041F27F
:1010A0000C00C4F2010000F099F96DE09DF8070012
:1010B000032817D1FFE79DF801109DF800209DF847
:1010C000053041F20440C4F20100FFF729FE9DF80B
:1010D00006109DF8042041F20C40C4F2010000F01B
:1010E0007DF950E09DF80700042817D1FFE79DF82F
:1010F00001109DF800209DF8053041F60400C4F26F
:101100000100FFF70DFE9DF806109DF8042041F642
:101110000C00C4F2010000F061F933E09DF8070013
:10112000052817D1FFE79DF801109DF800209DF8D4
:10113000053041F60440C4F20100FFF7F1FD9DF8CF
:1011400006109DF8042041F60C40C4F2010000F0A6
:1011500045F916E09DF801109DF800209DF8053036
:1011600042F20400C4F20100FFF7DAFD9DF8061018
:101170009DF8042042F20C00C4F2010000F02EF9A8
:10118000FFE7FFE7FFE7FFE7FFE7FFE7FFE702B063
:1011900080BD000080B582B08DF807008DF8061084
:1011A0008DF805209DF80600072800F38980FFE7E9
:1011B0009DF8060080008DF804009DF804000230C0
:1011C0008DF803009DF8070068B9FFE79DF804104B
:1011D0009DF803209DF8053040F60000C4F20100A0
:1011E000FFF7DAFD6BE09DF8070001280DD1FFE75E
:1011F0009DF804109DF803209DF8053040F600404E
:10120000C4F20100FFF7C8FD58E09DF8070002286E
:101210000DD1FFE79DF804109DF803209DF80530DF
:1012200041F20000C4F20100FFF7B6FD45E09DF871
:10123000070003280DD1FFE79DF804109DF8032057
:101240009DF8053041F20040C4F20100FFF7A4FD13
:1012500032E09DF8070004280DD1FFE79DF8041047
:101260009DF803209DF8053041F60000C4F201000E
:10127000FFF792FD1FE09DF8070005280DD1FFE75D
:101280009DF804109DF803209DF8053041F60040BC
:10129000C4F20100FFF780FD0CE09DF804109DF8FA
:1012A00003209DF8053042F20000C4F20100FFF770
:1012B00073FDFFE7FFE7FFE7FFE7FFE7FFE78AE0F0
:1012C0009DF806106FF01F0000EB81008DF8020002
:1012D0009DF8020002308DF801009DF8070068B902
:1012E000FFE79DF802109DF801209DF8053040F6BB
:1012F0000400C4F20100FFF74FFD6BE09DF807000A
:1013000001280DD1FFE79DF802109DF801209DF8FE
:10131000053040F60440C4F20100FFF73DFD58E0FF
:101320009DF8070002280DD1FFE79DF802109DF8F7
:1013300001209DF8053041F20400C4F20100FFF7DE
:101340002BFD45E09DF8070003280DD1FFE79DF830
:1013500002109DF801209DF8053041F20440C4F2CE
:101360000100FFF719FD32E09DF8070004280DD1B8
:10137000FFE79DF802109DF801209DF8053041F629
:101380000400C4F20100FFF707FD1FE09DF807000D
:1013900005280DD1FFE79DF802109DF801209DF86A
:1013A000053041F60440C4F20100FFF7F5FC0CE003
:1013B0009DF802109DF801209DF8053042F20400CE
:1013C000C4F20100FFF7E8FCFFE7FFE7FFE7FFE7F4
:1013D000FFE7FFE7FFE702B080BD000082B00190A9
:1013E0008DF803108DF802209DF8020001280AD123
:1013F000FFE79DF80310012000FA01F20199086847
:101400001043086009E09DF80310012000FA01F282
:101410000199086890430860FFE702B07047000038
:1014200080B500F001F880BD84B0002003900290E8
:1014300041F20001C4F20201086840F48030086003
:10144000FFE741F20000C4F20200006800F400303F
:101450000290039801300390FFE702990020019069
:1014600039B9FFE70398B0F5A06018BF01200190DB
:10147000FFE70198C0070028E3D1FFE741F2000031
:10148000C4F2020000688003002803D5FFE70120B2
:10149000029002E000200290FFE70298012851D15B
:1014A000FFE742F20001C4F20201086840F01000B8
:1014B0000860086820F007000860086840F0020033
:1014C000086041F20401C4F202010091086808605A
:1014D00008680860086840F480600860086820F4C4
:1014E0007C100860086840F4E810086041F20001D0
:1014F000C4F20201086840F080700860FFE741F222
:101500000000C4F2020000688001002801D4FFE757
:10151000F5E741F20401C4F20201086820F003007B
:101520000860086840F002000860FFE741F204002C
:10153000C4F20200006800F00C00082801D0FFE7A8
:10154000F4E700E0FFE704B07047000080B584B026
:1015500001200390FFF7FAF80020019009210222F0
:101560000292FFF717FE0198029A039B0A21FFF7E8
:101570005FFC0421C4F20101086820F00400086047
:1015800004B080BD40F2FC01C2F2000100200860FE
:101590004EF21402CEF2000241F63F11C0F20101F8
:1015A00011604EF21801CEF2000108604EF21001F7
:1015B000CEF20001086840F00700086070470000A4
:1015C00080B582B000200190FFE7019802285ADC24
:1015D000FFE7019800EB800140F2BC00C2F200007E
:1015E00000EB81008068002848D0FFE740F2FC0053
:1015F000C2F200000068019901EB810240F2BC01D7
:10160000C2F2000101EB82029168D268801A88421E
:1016100033D3FFE7019800EB800140F2BC00C2F237
:10162000000000EB81000079012819D1FFE7019843
:1016300000EB800140F2BC00C2F20000009000EB21
:10164000810000698047009940F2FC00C2F200006E
:101650000068019A02EB820201EB8201C8600BE094
:10166000019800EB800140F2BC00C2F2000000EBE8
:10167000810000698047FFE7FFE7FFE7FFE7019888
:1016800001300190A1E702B080BD000084B003905A
:1016900002918DF807200093039800EB800240F23E
:1016A000BC01C2F2000141F822009DF80700039A34
:1016B00002EB820201EB820210710298039A02EBA4
:1016C000820201EB820290600098039A02EB820290
:1016D00001EB8202106140F2FC00C2F200000068DF
:1016E000039A02EB820201EB8201C86004B07047EA
:1016F00040F2FC01C2F20001086801300860704746
:1017000080B541F20002C4F20202106840F001000C
:10171000106041F20401C4F2020108680023CFF610
:10172000FF031840086010684FF6FF73CFF6F663AA
:1017300018401060106820F480201060086820F4C1
:10174000FE00086041F20801C4F202014FF41F00DC
:101750000860FFF765FE4EF60851CEF200014FF02B
:101760000060086080BD00001021C4F2000108681C
:1017700020F00100086040F26401C2F20001086834
:101780000130086040F2F801C2F20001086801303F
:101790000860704780B584B00020039041F21C02BD
:1017A000C4F20202116841F0010111602821C4F263
:1017B000000108602C22C4F200024821116024219B
:1017C000C4F2000108600C21C4F20001086840F076
:1017D000010008601021C4F20001086820F0010037
:1017E00008601C200190FFF77BF923200121029162
:1017F000FFF7AAF90198FFF78DF90298039921F0F4
:1018000010010391039941F00101039103994FF0F5
:10181000804211601421C4F20001086004B080BD50
:1018200081B08DF803008DF802109DF8030068B9AF
:10183000FFE79DF80210012000FA01F240F60C01CA
:10184000C4F201010868504008606BE09DF8030095
:1018500001280DD1FFE79DF80210012000FA01F2E6
:1018600040F60C41C4F2010108685040086058E09D
:101870009DF8030002280DD1FFE79DF8021001201A
:1018800000FA01F241F20C01C4F201010868504073
:10189000086045E09DF8030003280DD1FFE79DF89F
:1018A0000210012000FA01F241F20C41C4F20101E0
:1018B00008685040086032E09DF8030004280DD10C
:1018C000FFE79DF80210012000FA01F241F60C0139
:1018D000C4F201010868504008601FE09DF8030051
:1018E00005280DD1FFE79DF80210012000FA01F252
:1018F00041F60C41C4F201010868504008600CE058
:101900009DF80210012000FA01F242F20C01C4F22B
:101910000101086850400860FFE7FFE7FFE7FFE7C5
:10192000FFE7FFE701B0704780B500F0B1F880BD78
:1019300080B582B0FFF70AFE00F03EF843F60C01D6
:10194000C4F20101086840F008000860086840F02F
:1019500004000860086820F480500860086840F0BF
:101960002000086043F60802C4F20102106840F447
:10197000EA501060106840F00C001060086840F4F5
:1019800000500860252001900021FFF7DDF8019844
:10199000FFF7A6F80198FFF7BDF840F20111C2F277
:1019A00000010120087040F28C01C2F20001032006
:1019B000087002B080BD000041F21801C4F20201BB
:1019C000086840F4804008607047000081B00090D3
:1019D00040F28C00C2F20000007804284BD1FFE7EF
:1019E00040F27E00C2F20000007840F27F01C2F2B5
:1019F0000001097888422AD0FFE740F27E00C2F257
:101A00000000027840F29401C2F20001895C009B60
:101A100040F20212C2F2000292F800C003F80C1069
:101A20001178013111700078132807D3FFE740F2D5
:101A30007E01C2F200010020087007E040F27E0142
:101A4000C2F20001087801300870FFE712E040F2AE
:101A50000211C2F20001087840F28002C2F20002D4
:101A600010600020087040F28C01C2F200010320D7
:101A70000870FFE7FFE740F28000C2F20000006854
:101A800001B0704740F28C00C2F20000007870474D
:101A900043F60400C4F20100016840F27F00C2F284
:101AA0000000037840F29402C2F20002D1540078A0
:101AB000132807D3FFE740F27F01C2F200010020A4
:101AC000087007E040F27F01C2F20001087801309F
:101AD0000870FFE740F28C01C2F200010420087098
:101AE0007047000040F20110C2F2000000780228A6
:101AF00038D1FFE743F60000C4F201000068000699
:101B0000002821D5FFE740F28400C2F200000068FF
:101B1000D0B1FFE740F20411C2F200010A6840F2BE
:101B2000A800C2F20000805C43F60402C4F2010285
:101B3000106008680130086040F28401C2F20001C0
:101B40000868013808600CE040F20411C2F200019C
:101B50000020086040F20111C2F20001012008706B
:101B6000FFE7FFE77047000040F20810C2F20000F4
:101B700080783B2852DBFFE740F20810C2F20000F9
:101B80000021817040783B283FDBFFE740F20811DD
:101B9000C2F200010020487040F20010C2F20000C2
:101BA0000078012818D1FFE740F20810C2F20000C7
:101BB00000780C2807DBFFE740F20811C2F20001B1
:101BC0000120087007E040F20811C2F20001087815
:101BD00001300870FFE717E040F20810C2F2000081
:101BE0000078172807DBFFE740F20811C2F2000176
:101BF0000020087007E040F20811C2F200010878E6
:101C000001300870FFE7FFE707E040F20811C2F279
:101C10000001487801304870FFE707E040F2081102
:101C2000C2F20001887801308870FFE77047000039
:101C300081B08DF803008DF802108DF801209DF819
:101C4000010001287ED1FFE79DF8030068B9FFE796
:101C50009DF80210012000FA01F240F60C01C4F2D6
:101C600001010868104308606BE09DF8030001283B
:101C70000DD1FFE79DF80210012000FA01F240F6B5
:101C80000C41C4F2010108681043086058E09DF857
:101C9000030002280DD1FFE79DF80210012000FA91
:101CA00001F241F20C01C4F201010868104308601E
:101CB00045E09DF8030003280DD1FFE79DF80210D1
:101CC000012000FA01F241F20C41C4F2010108685E
:101CD0001043086032E09DF8030004280DD1FFE7AF
:101CE0009DF80210012000FA01F241F60C01C4F245
:101CF00001010868104308601FE09DF803000528F3
:101D00000DD1FFE79DF80210012000FA01F241F623
:101D10000C41C4F201010868104308600CE09DF812
:101D20000210012000FA01F242F20C01C4F201019A
:101D3000086810430860FFE7FFE7FFE7FFE7FFE7FA
:101D4000FFE77DE09DF8030068B9FFE79DF802100A
:101D5000012000FA01F240F60C01C4F2010108680A
:101D6000904308606BE09DF8030001280DD1FFE768
:101D70009DF80210012000FA01F240F60C41C4F275
:101D8000010108689043086058E09DF803000228AC
:101D90000DD1FFE79DF80210012000FA01F241F297
:101DA0000C01C4F2010108689043086045E09DF809
:101DB000030003280DD1FFE79DF80210012000FA6F
:101DC00001F241F20C41C4F201010868904308603D
:101DD00032E09DF8030004280DD1FFE79DF80210C2
:101DE000012000FA01F241F60C01C4F20101086879
:101DF000904308601FE09DF8030005280DD1FFE720
:101E00009DF80210012000FA01F241F60C41C4F2E3
:101E100001010868904308600CE09DF80210012061
:101E200000FA01F242F20C01C4F201010868904389
:101E30000860FFE7FFE7FFE7FFE7FFE7FFE7FFE7F0
:101E400001B0704780B582B000200190FEF7EEFD32
:101E5000601E000800000020100700002801000894
:04000005080000ED02
:00000001FF
