:020000040800F2
:10000000300700206D010008750100087701000825
:10001000790100087B0100087D0100080000000054
:100020000000000000000000000000007F01000848
:1000300081010008000000008301000891140008FD
:100040008701000887010008870100088701000870
:100050008701000887010008870100088701000860
:100060008701000887010008870100088701000850
:100070008701000887010008870100088701000840
:100080008701000887010008870100088701000830
:100090008701000887010008870100088701000820
:1000A0008701000887010008870100088701000810
:1000B000091500088701000887010008870100086A
:1000C000870100088701000887010008C1090008AE
:1000D00087010008C1150008870100088701000892
:1000E00087010008870100088701000800F002F876
:1000F00000F02CF80AA090E8000C82448344AAF196
:100100000107DA4501D100F021F8AFF2090EBAE893
:100110000F0013F0010F18BFFB1A43F0010318473B
:100120004417000054170000002300240025002677
:10013000103A28BF78C1FBD8520728BF30C148BF4A
:100140000B6070471FB51FBD10B510BD00F031F832
:100150001146FFF7F7FF01F053FB00F04FF803B42F
:10016000FFF7F2FF03BC00F057F800000948804792
:1001700009480047FEE7FEE7FEE7FEE7FEE7FEE789
:10018000FEE7FEE7FEE7FEE704480549054A064BA1
:1001900070470000A1140008ED00000830010020A5
:1001A00030070020300300203003002070477047E4
:1001B0007047754600F02CF8AE4605006946534678
:1001C00020F00700854618B020B5FFF7DDFFBDE839
:1001D00020404FF000064FF000074FF000084FF0AE
:1001E000000BAC46ACE8C009ACE8C009ACE8C009FB
:1001F000ACE8C00921F007018D46704710B50446F0
:10020000AFF300802046BDE81040FFF7A8BF000014
:10021000004870470000002001491820ABBEFEE7EF
:10022000260002007047000080B540F2D000C2F204
:100230000000007818B9FFE700F032F806E040F25D
:100240006000C2F2000000F00FF9FFE780BD00007F
:1002500040F22411C2F2000100200870487088703A
:1002600040F21811C2F200010870704783B002908A
:100270000191002000900090FFE7009801998842CA
:100280000BD8FFE702990020087002980130029015
:10029000FFE7009801300090EFE703B070470000DF
:1002A00080B582B000208DF8070040F29C00C2F2B9
:1002B00000000068002800F09C80FFE740F27C000E
:1002C000C2F2000000785B2840F08480FFE740F233
:1002D0007C00C2F2000080795D2808D0FFE740F280
:1002E0007C00C2F20000407A5D2873D1FFE7002055
:1002F0008DF80700FFE79DF8070040F29C01C2F26D
:1003000000010968884264D2FFE79DF8071040F2B7
:100310007C00C2F20000405C30280ADBFFE79DF859
:10032000071040F27C00C2F20000405C3A2828DB53
:10033000FFE79DF8071040F27C00C2F20000405C2D
:1003400041280ADBFFE79DF8071040F27C00C2F26B
:100350000000405C5B2814DBFFE79DF8071040F2CB
:100360007C00C2F20000405C5B280AD0FFE79DF8E9
:10037000071040F27C00C2F20000405C5D2813D1FF
:10038000FFE79DF8072040F27C00C2F20000805C8D
:1003900040F26001C2F20001885440F2D001C2F282
:1003A0000001012008700DE040F29C00C2F2000044
:1003B00000210160016840F27C00C2F20000FFF7FA
:1003C00055FF06E0FFE79DF8070001308DF80700B4
:1003D00091E70DE040F29C00C2F2000000210160B4
:1003E000016840F27C00C2F20000FFF73FFFFFE728
:1003F000FFE702B080BD000081B08DF803009DF8DA
:100400000300012809D1FFE741F21801C4F20201FB
:10041000086840F00100086008E041F21801C4F2E9
:100420000201086820F001000860FFE701B0704792
:1004300081B08DF803009DF80300012809D1FFE782
:1004400041F21801C4F20201086840F480500860CB
:1004500008E041F21801C4F20201086820F480505B
:100460000860FFE701B0704780B58CB00B900B9827
:10047000C07830388DF81B000B98007930388DF833
:100480001C000B98407930388DF81D000B9880794E
:1004900030388DF81E000B98C07930388DF81F0069
:1004A0000B98007A30388DF820000B9841F65A01ED
:1004B000C0F6000101F0AAF9012807D1FFE740F2D8
:1004C0007401C2F200010320087070E00B984078BC
:1004D000482825D1FFE70B988078472820D1FFE7EF
:1004E00040F27401C2F200010220087006A80490D4
:1004F000C11C021D40F2A200C2F20000059000F0F3
:100500008DF9049A0598511D0632013000F086F9E4
:10051000049A0598D11D0832023000F07FF931E0CD
:100520000B98407841280CD1FFE70B9880784D2834
:1005300007D1FFE740F21811C2F200010020087055
:1005400006E040F21811C2F2000101200870FFE736
:1005500006A80290C11C021D40F22410C2F2000045
:10056000039000F05BF9029A0398511D06320130A6
:1005700000F054F9029A0398D11D0832023000F0BD
:100580004DF9FFE740F29C00C2F2000001900168C3
:1005900040F27C00C2F20000FFF768FE01990020E3
:1005A000086040F2D001C2F200010870FFE70CB011
:1005B00080BD000082B0019001984FF47A714843E9
:1005C0000090FFE740F27800C2F200000068009956
:1005D000884201D8FFE7F5E740F27801C2F2000156
:1005E0000020086002B0704781B08DF803009DF8CC
:1005F0000300012809D1FFE741F21801C4F202010A
:10060000086840F00400086008E041F21801C4F2F4
:100610000201086820F004000860FFE701B070479D
:1006200081B041F20401C4F20201086820F0030025
:10063000086041F21401C4F20201086820F48050FD
:10064000086041F20001C4F20201086820F08070E5
:100650000860086840F480300860FFE741F200005D
:10066000C4F2020000688003002801D4FFE7F5E728
:1006700041F22C01C4F20201086820F480300860C5
:10068000086820F00F00086041F20401C4F2020182
:100690000091086840F480300860086820F4701009
:1006A0000860086840F4E0100860086820F4806082
:1006B0000860086840F480500860086820F4005022
:1006C0000860086820F0F0000860086840F0010049
:1006D000086041F20002C4F20202106820F001003A
:1006E0001060106840F080701060086820F0706042
:1006F0000860086820F001000860086840F0020007
:100700000860FFE741F20400C4F20200006800073D
:10071000002801D4FFE7F5E701B0704780B582B04B
:100720008DF807008DF806109DF80600ADF804005E
:100730009DF80710BDF8040000EB0120ADF804009F
:1007400001A800F0B3F902B080BD000080B582B00E
:100750008DF807008DF806108DF80520032000F0B5
:1007600017F8062000F014F89DF80520012002215A
:1007700000F022F89DF806200420052100F01CF866
:100780009DF807200720082100F016F802B080BD70
:1007900080B582B08DF807000F20ADF804009DF8F9
:1007A0000710BDF8040040EA0120ADF8040001A8DC
:1007B00000F07CF902B080BD80B582B08DF80700F2
:1007C0008DF806108DF8052000208DF804008DF8B6
:1007D00003009DF805004CF6CD41CCF6CC41A0FBC2
:1007E0000132D20802EB8202A0EB42008DF8040035
:1007F0009DF80500A0FB0110C0088DF803009DF8CE
:1008000007009DF80410FFF789FF9DF806009DF88A
:100810000310FFF783FF02B080BD000083B0029099
:10082000019100920198007800EB80010098007817
:1008300000EB41000299087003B07047FFF7F0FE2B
:1008400000F0A2FD00F0C0FE00F0C6F800F072FE5D
:1008500000F022F8FFF7FCFCFFE7FFF7E5FC40F2B1
:100860002412C2F20002107851789278FFF76EFFDE
:1008700040F27C00C2F2000000F0F4FE40F29C0165
:10088000C2F20001086000F09DFD00F077FF022039
:10089000FFF790FEE1E7000080B582B00020ADF8E0
:1008A000060040F60120ADF806000DF106000090AC
:1008B00000F0FCF8009840F60731ADF8061000F0A3
:1008C000F5F8009840F60141ADF8061000F0EEF89A
:1008D000009840F6FF11ADF8061000F0E7F802B0FE
:1008E00080BD000081B08DF803009DF9031001EB7D
:1008F000D16020F01F028A1A012101FA02F342118D
:100900004EF28021CEF2000151F82200184341F846
:10091000220001B07047000081B08DF803009DF9FE
:10092000031001EBD16020F01F028A1A012101FAA5
:1009300002F342114EF20011CEF2000151F82200F2
:10094000184341F8220001B07047000081B08DF8D3
:1009500003008DF802109DF802009DF9032002EBC0
:10096000927121F00301521AD200043200FA02F30C
:100970004EF20042CEF2000288581843885001B06F
:100980007047000040F61001C4F20101086840F011
:10099000100008607047000043F20001C4F201013A
:1009A000086840F0400008607047000040F61401FD
:1009B000C4F20101086840F01000086070470000B0
:1009C00043F20C00C4F20100006840F2A101C2F23F
:1009D000000108707047000080B584B001200090CD
:1009E000FFF702FE0098FFF707FD0098FFF720FDD4
:1009F000042100220292104600F0CEFA029805214E
:100A00000222019200F0C8FA009B029806211A46C1
:100A100000F010F9019A0298072100F0BDFA02993E
:100A200043F20002C4F201021160106820F00400D9
:100A30001060106840F004001060106820F038006A
:100A40001060106840F030001060106820F4806082
:100A50001060106840F480701060106820F400701E
:100A60001060106840F400701060106820F400609E
:100A70001060106840F40060106043F20402C4F299
:100A80000102106840F04000106023200390FFF73F
:100A90005DFF0398FFF726FF0398FFF73DFFFFF781
:100AA0007BFFFFF76FFF04B080BD000080B582B010
:100AB0000190FFF77BFFFFE743F20800C4F201005B
:100AC00000688007002801D4FFE7F5E70198008857
:100AD00043F20C01C4F201010860FFE743F2080091
:100AE000C4F2010000688007002801D4FFE7F5E7A1
:100AF000FFE743F20800C4F2010000680006002886
:100B000001D5FFE7F5E743F20C00C4F201000068ED
:100B100043F20800C4F201000068FFF733FF02B09F
:100B200080BD000082B001908DF803108DF8022086
:100B30008DF801309DF80310032000FA01F3019AAB
:100B40001168994311609DF8021000FA01F20199B1
:100B50000868904308609DF8010001280AD1FFE76A
:100B60009DF80210012000FA01F201990868104373
:100B7000086010E09DF8010002280AD1FFE79DF807
:100B80000210022000FA01F201990868104308607F
:100B900000E0FFE7FFE702B07047000082B001907D
:100BA0008DF803108DF802208DF801309DF80310A8
:100BB000032000FA01F3019A1168194311609DF8AE
:100BC000021000FA01F201990868904308609DF84C
:100BD000010001280AD1FFE79DF80210012000FA68
:100BE00001F2019908681043086020E09DF80100B7
:100BF00002280AD1FFE79DF80210022000FA01F254
:100C0000019908681043086010E09DF8010003286E
:100C10000AD1FFE79DF80210032000FA01F20199C2
:100C200008681043086000E0FFE7FFE7FFE702B055
:100C30007047000080B582B08DF807008DF806106F
:100C40008DF805208DF804309DF80600072800F384
:100C5000CF80FFE79DF8060080008DF803009DF827
:100C6000030002308DF802009DF80700B8B9FFE7D5
:100C70009DF803109DF802209DF8053040F6000015
:100C8000C4F20100FFF74EFF9DF806109DF8042006
:100C900040F60C00C4F2010000F0A2FAA7E09DF8B3
:100CA0000700012817D1FFE79DF803109DF80220E7
:100CB0009DF8053040F60040C4F20100FFF732FF16
:100CC0009DF806109DF8042040F60C40C4F2010087
:100CD00000F086FA8AE09DF80700022817D1FFE7A6
:100CE0009DF803109DF802209DF8053041F20000A8
:100CF000C4F20100FFF716FF9DF806109DF80420CE
:100D000041F20C00C4F2010000F06AFA6DE09DF8B7
:100D10000700032817D1FFE79DF803109DF8022074
:100D20009DF8053041F20040C4F20100FFF7FAFEE1
:100D30009DF806109DF8042041F20C40C4F2010019
:100D400000F04EFA50E09DF80700042817D1FFE7A5
:100D50009DF803109DF802209DF8053041F6000033
:100D6000C4F20100FFF7DEFE9DF806109DF8042096
:100D700041F60C00C4F2010000F032FA33E09DF8B5
:100D80000700052817D1FFE79DF803109DF8022002
:100D90009DF8053041F60040C4F20100FFF7C2FEA5
:100DA0009DF806109DF8042041F60C40C4F20100A5
:100DB00000F016FA16E09DF803109DF802209DF849
:100DC000053042F20000C4F20100FFF7ABFE9DF8CF
:100DD00006109DF8042042F20C00C4F2010000F05D
:100DE000FFF9FFE7FFE7FFE7FFE7FFE7FFE7D0E0F7
:100DF0009DF806106FF01F0000EB81008DF80100D8
:100E00009DF8010002308DF800009DF80700B8B988
:100E1000FFE79DF801109DF800209DF8053040F691
:100E20000400C4F20100FFF77DFE9DF806109DF856
:100E3000042040F60C00C4F2010000F0D1F9A7E054
:100E40009DF80700012817D1FFE79DF801109DF8D4
:100E500000209DF8053040F60440C4F20100FFF781
:100E600061FE9DF806109DF8042040F60C40C4F287
:100E7000010000F0B5F98AE09DF80700022817D1BB
:100E8000FFE79DF801109DF800209DF8053041F224
:100E90000400C4F20100FFF745FE9DF806109DF81E
:100EA000042041F20C00C4F2010000F099F96DE059
:100EB0009DF80700032817D1FFE79DF801109DF862
:100EC00000209DF8053041F20440C4F20100FFF714
:100ED00029FE9DF806109DF8042041F20C40C4F252
:100EE000010000F07DF950E09DF80700042817D1BB
:100EF000FFE79DF801109DF800209DF8053041F6B0
:100F00000400C4F20100FFF70DFE9DF806109DF8E5
:100F1000042041F60C00C4F2010000F061F933E056
:100F20009DF80700052817D1FFE79DF801109DF8EF
:100F300000209DF8053041F60440C4F20100FFF79F
:100F4000F1FD9DF806109DF8042041F60C40C4F216
:100F5000010000F045F916E09DF801109DF8002011
:100F60009DF8053042F20400C4F20100FFF7DAFDFB
:100F70009DF806109DF8042042F20C00C4F2010016
:100F800000F02EF9FFE7FFE7FFE7FFE7FFE7FFE7E6
:100F9000FFE702B080BD000080B582B08DF8070089
:100FA0008DF806108DF805209DF80600072800F33F
:100FB0008980FFE79DF8060080008DF804009DF809
:100FC000040002308DF803009DF8070068B9FFE7C0
:100FD0009DF804109DF803209DF8053040F60000B0
:100FE000C4F20100FFF7DAFD6BE09DF8070001286D
:100FF0000DD1FFE79DF804109DF803209DF8053002
:1010000040F60040C4F20100FFF7C8FD58E09DF82B
:10101000070002280DD1FFE79DF804109DF803207A
:101020009DF8053041F20000C4F20100FFF7B6FD63
:1010300045E09DF8070003280DD1FFE79DF8041057
:101040009DF803209DF8053041F20040C4F20100F4
:10105000FFF7A4FD32E09DF8070004280DD1FFE75B
:101060009DF804109DF803209DF8053041F600001E
:10107000C4F20100FFF792FD1FE09DF8070005286C
:101080000DD1FFE79DF804109DF803209DF8053071
:1010900041F60040C4F20100FFF780FD0CE09DF82E
:1010A00004109DF803209DF8053042F20000C4F2C0
:1010B0000100FFF773FDFFE7FFE7FFE7FFE7FFE74B
:1010C000FFE78AE09DF806106FF01F0000EB81003B
:1010D0008DF802009DF8020002308DF801009DF8A5
:1010E000070068B9FFE79DF802109DF801209DF800
:1010F000053040F60400C4F20100FFF74FFD6BE03D
:101100009DF8070001280DD1FFE79DF802109DF81A
:1011100001209DF8053040F60440C4F20100FFF7BD
:101120003DFD58E09DF8070002280DD1FFE79DF82E
:1011300002109DF801209DF8053041F20400C4F230
:101140000100FFF72BFD45E09DF8070003280DD1B6
:10115000FFE79DF802109DF801209DF8053041F24F
:101160000440C4F20100FFF719FD32E09DF80700CA
:1011700004280DD1FFE79DF802109DF801209DF88D
:10118000053041F60400C4F20100FFF707FD1FE03F
:101190009DF8070005280DD1FFE79DF802109DF886
:1011A00001209DF8053041F60440C4F20100FFF72C
:1011B000F5FC0CE09DF802109DF801209DF805302B
:1011C00042F20400C4F20100FFF7E8FCFFE7FFE78A
:1011D000FFE7FFE7FFE7FFE7FFE702B080BD0000A2
:1011E00082B001908DF803108DF802209DF8020066
:1011F00001280AD1FFE79DF80310012000FA01F24F
:10120000019908681043086009E09DF80310012067
:1012100000FA01F20199086890430860FFE702B004
:101220007047000080B500F001F880BD84B0002058
:101230000390029041F20001C4F20201086840F4F8
:1012400080300860FFE741F20000C4F2020000684D
:1012500000F400300290039801300390FFE70299F8
:101260000020019039B9FFE70398B0F5A06018BFDE
:1012700001200190FFE70198C0070028E3D1FFE7B4
:1012800041F20000C4F2020000688003002803D588
:10129000FFE70120029002E000200290FFE70298A1
:1012A000012851D1FFE742F20001C4F202010868AF
:1012B00040F010000860086820F007000860086827
:1012C00040F00200086041F20401C4F20201009102
:1012D0000868086008680860086840F48060086072
:1012E000086820F47C100860086840F4E810086082
:1012F00041F20001C4F20201086840F08070086009
:10130000FFE741F20000C4F20200006880010028FB
:1013100001D4FFE7F5E741F20401C4F202010868D5
:1013200020F003000860086840F002000860FFE752
:1013300041F20400C4F20200006800F00C0008282A
:1013400001D0FFE7F4E700E0FFE704B070470000DA
:1013500080B584B001200390FFF746F9002001908A
:10136000092102220292FFF717FE0198029A039BBD
:101370000A21FFF75FFC0421C4F20101086820F094
:101380000400086004B080BD40F21411C2F20001F4
:10139000002008604EF21402CEF2000241F63F1126
:1013A000C0F2010111604EF21801CEF20001086096
:1013B0004EF21001CEF20001086840F0070008600C
:1013C0007047000080B582B000200190FFE70198CF
:1013D00002285ADCFFE7019800EB800140F2D400BC
:1013E000C2F2000000EB81008068002848D0FFE7CF
:1013F00040F21410C2F200000068019901EB810272
:1014000040F2D401C2F2000101EB82029168D2687D
:10141000801A884233D3FFE7019800EB800140F245
:10142000D400C2F2000000EB81000079012819D13C
:10143000FFE7019800EB800140F2D400C2F2000007
:10144000009000EB810000698047009940F2141081
:10145000C2F200000068019A02EB820201EB8201F5
:10146000C8600BE0019800EB800140F2D400C2F2AA
:10147000000000EB810000698047FFE7FFE7FFE71E
:10148000FFE7019801300190A1E702B080BD0000A4
:1014900040F21411C2F20001086801300860704780
:1014A00080B541F20002C4F20202106840F001006F
:1014B000106041F20401C4F2020108680023CFF673
:1014C000FF031840086010684FF6FF73CFF6F6630D
:1014D00018401060106820F480201060086820F424
:1014E000FE00086041F20801C4F202014FF41F003F
:1014F0000860FFF797FE4EF60851CEF200014FF05C
:101500000060086080BD00001021C4F2000108687E
:1015100020F00100086040F27801C2F20001086882
:101520000130086040F21011C2F200010868013079
:101530000860704780B584B00020039041F21C021F
:10154000C4F20202116841F0010111602821C4F2C5
:10155000000108602C22C4F20002482111602421FD
:10156000C4F2000108600C21C4F20001086840F0D8
:10157000010008601021C4F20001086820F0010099
:1015800008601C200190FFF7ADF923200121029192
:10159000FFF7DCF90198FFF7BFF90298039921F0F2
:1015A00010010391039941F00101039103994FF058
:1015B000804211601421C4F20001086004B080BDB3
:1015C00080B500F0B1F880BD80B582B0FFF7C0FEF5
:1015D00000F03EF843F60C01C4F20101086840F047
:1015E00008000860086840F004000860086820F4FB
:1015F00080500860086840F02000086043F6080248
:10160000C4F20102106840F4EA501060106840F023
:101610000C001060086840F400500860252001901C
:101620000021FFF793F90198FFF75CF90198FFF7A4
:1016300073F940F21911C2F200010120087040F262
:10164000A001C2F200010320087002B080BD0000BA
:1016500041F21801C4F20201086840F480400860B9
:101660007047000081B0009040F2A000C2F200007C
:101670000078042849D1FFE740F29000C2F2000050
:10168000007840F29101C2F20001097888422AD024
:10169000FFE740F29000C2F20000027840F2A80199
:1016A000C2F20001895C009B40F21C12C2F20002EF
:1016B000D2F800C003F80C101168013111600078F5
:1016C000132807D3FFE740F29001C2F20001002087
:1016D000087007E040F29001C2F200010878013082
:1016E0000870FFE710E040F21C10C2F20000006832
:1016F00040F29401C2F20001086040F2A001C2F27F
:10170000000103200870FFE706E040F21C11C2F25E
:10171000000100200860FFE740F29400C2F20000E0
:10172000006801B07047000043F60400C4F20100F5
:10173000016840F29100C2F20000037840F2A80272
:10174000C2F20002D1540078132807D3FFE740F219
:101750009101C2F200010020087007E040F29101FF
:10176000C2F20001087801300870FFE740F2A001E2
:10177000C2F20001042008707047000040F2191006
:10178000C2F200000078022838D1FFE743F60000DB
:10179000C4F2010000680006002821D5FFE740F2EE
:1017A0009800C2F200000068D0B1FFE740F22011BB
:1017B000C2F200010A6840F2BC00C2F20000805C84
:1017C00043F60402C4F201021060086801300860A8
:1017D00040F29801C2F200010868013808600CE08C
:1017E00040F22011C2F200010020086040F21911FD
:1017F000C2F2000101200870FFE7FFE77047000018
:1018000080B582B000200190FFF718F883B00290F5
:10181000019101208DF8030000208DF80200FFE700
:1018200002989DF80210405C98B1FFE702989DF87D
:101830000220805C0199895C884204D0FFE7002087
:101840008DF8030005E09DF8020001308DF80200DC
:10185000E6E79DF8030003B070475B5354415254D0
:101860005D00000074180008000000203007000030
:041870002801000843
:04000005080000ED02
:00000001FF
